:020000021000EC
:10C0000000000120C10E0200E90E0200EB0E02004A
:10C01000ED0E0200EF0E0200F10E02000000000023
:10C02000000000000000000000000000F30E02000D
:10C03000F50E020000000000F70E0200F90E0200EB
:10C04000FB0E0200FB0E0200FB0E0200FB0E0200C4
:10C05000FB0E0200FB0E020035DF0100FB0E0200AA
:10C06000FB0E0200FB0E0200FB0E0200FB0E0200A4
:10C07000FB0E0200FB0E0200FB0E0200FB0E020094
:10C08000FB0E020035C90100FB0E0200FB0E020090
:10C0900011CA0100FB0E0200910D0200FB0E02000E
:10C0A000FB0E0200FB0E0200FB0E0200FB0E020064
:10C0B000FB0E0200FB0E020000000000000000006A
:10C0C000FB0E0200FB0E0200FB0E0200FB0E020044
:10C0D000FB0E0200FB0E0200FB0E0200000000003F
:10C0E0000000000000000000000000000000000050
:10C0F0000000000000000000000000000000000040
:10C10000000000000000000000000000000000002F
:10C11000000000000000000000000000000000001F
:10C4000010B5054C237833B9044B13B10448AFF38E
:10C4100000800123237010BDFC20002000000000DC
:10C42000882202000C4B43B10C480D4910B5AFF304
:10C4300000800C48036823B910BD0A48036833B96B
:10C440007047094B002BF7D0BDE810401847064B4A
:10C45000002BF5D0184700BF000000008822020022
:10C4600000210020F820002000000000154B002BC8
:10C4700008BF134B9D46A3F5803A00218B460F461B
:10C480001348144A121A00F063F80F4B002B00D027
:10C4900098470E4B002B00D0984700200021040045
:10C4A0000D000D48002802D00C48AFF3008000F0CA
:10C4B0002BF82000290002F07FFF00F011F800BFE8
:10C4C0000000080000000120000000000000000043
:10C4D000FC200020203000200000000000000000B0
:10C4E00008B5074B044613B10021AFF30080054B9C
:10C4F0001868836A03B19847204600F031F800BFFE
:10C50000000000002C1E020070B50D4E0D4CA41B47
:10C51000A4100025A54209D10B4E0C4C05F07AFC65
:10C52000A41BA4100025A54205D170BD56F82530E6
:10C5300098470135EEE756F8253098470135F2E780
:10C54000F0200020F0200020F0200020F420002027
:10C5500002440346934200D1704703F8011BF9E7F8
:10C56000FEE700BF2DE9F84F254B93F800E0BEF140
:10C57000000F31D0DFF88CB0DFF88CA0DFF88C90A2
:10C580000024012703E00134E4B2744524D226B22A
:10C59000DBF80050DAF8003015F8360007FA00F141
:10C5A000194205EBC608EED023EA0103CAF80030B1
:10C5B00001F0B6FC15F83660D9F8003007FA06F538
:10C5C0002B4000FA06F18B4208D00D4B013493F852
:10C5D00000E0E4B27445DAD3BDE8F88FD8F804304F
:10C5E000002BF2D098F80110A1F10101B1FA81F10C
:10C5F0004909091AB1FA81F1490930469847E4E737
:10C600001821002048210020442100204021002042
:10C6100070B50646114800F055FD40B9104D012493
:10C620002B68B4401C4203D023EA04042C6070BD84
:10C63000304601F075FC0B4E326860B122432B6826
:10C64000094932601C432C60044809680022BDE897
:10C65000704000F0CDBC22EA0402F0E72021002067
:10C6600044210020402100201C210020042A01D860
:10C67000072070472DE9F04182B0884605461746ED
:10C6800001F022FB002836D01D4C1E481E491F4ACF
:10C690001F4B2560002608F1FF3480F800800F60F2
:10C6A00016601E60E4B2B8F1000F1ED0DFF86C8097
:10C6B000032701E0FF2C18D023B205EBC30215F8C5
:10C6C000330093788DF80470424601A98DF8066016
:10C6D0008DF807608DF8053001F000FB013CE4B2F5
:10C6E0000028E7D002B0BDE8F0810A4A0A480021DC
:10C6F00000F06CFCF6E701F0AFFA0028C4D0F1E7D7
:10C7000048210020182100201C2100204021002069
:10C710004421002065C50100301E020011C6010041
:10C7200070B5084D2B785BB1074E002433680121AA
:10C7300013F8340001F092FB2B780134A342F5D8B2
:10C74000002070BD182100204821002000B585B0D0
:10C7500000230390194601AA44F20100ADF8043009
:10C76000029300F03BF805B05DF804FB00B585B01E
:10C77000039013480292ADF8041004F0CBFB44F28E
:10C780000101104804F0C6FB00210F4804F0C2FB71
:10C7900001A90E4804F0BEFBBDF804100C4804F0DB
:10C7A000B9FB02990B4804F0B5FB03990A4804F061
:10C7B000B1FB052001F0DCF905B05DF804FB00BF1A
:10C7C000341E02004C1E0200681E0200841E02007D
:10C7D000A01E0200B41E0200C81E0200BFF34F8F4D
:10C7E0000549064BCA6802F4E0621343CB60BFF30D
:10C7F0004F8F00BFFDE700BF00ED00E00400FA0529
:10C80000484B494830B401214FF480344FF400358F
:10C810002F22C0F88050C3F848431046C3F808439D
:10C820005960013800BF00BF00BF00BF00BF00BF9C
:10C8300000BF00BF00BF00BF00BF00BF00BF00BF00
:10C8400000BF00BF00BF00BF00BF00BF00BF00BFF0
:10C8500000BF00BF00BF00BF00BF00BF00BF00BFE0
:10C8600000BF00BF00BF00BF00BF00BF00BF00BFD0
:10C8700000BF00BF00BF00BF00BF00BF00BF00BFC0
:10C8800000BF00BF00BF00BF00BF00BF00BF00BFB0
:10C8900000BF00BF00BF00BFC3D1244C996000237C
:10C8A00010462360013800BF00BF00BF00BF00BFBB
:10C8B00000BF00BF00BF00BF00BF00BF00BF00BF80
:10C8C00000BF00BF00BF00BF00BF00BF00BF00BF70
:10C8D00000BF00BF00BF00BF00BF00BF00BF00BF60
:10C8E00000BF00BF00BF00BF00BF00BF00BF00BF50
:10C8F00000BF00BF00BF00BF00BF00BF00BF00BF40
:10C9000000BF00BF00BF00BF00BF00BF00BF00BF2F
:10C9100000BF00BF00BF00BF00BFC3D1044A1370F7
:10C9200030BC70470010014000E100E060210020B1
:10C93000512100202DE9F0472C4A2D4B0025C2F84B
:10C940004051C2F84451C2F84851C2F84C51C2F8A3
:10C950000051C2F804511B682BB32649D2F8044594
:10C960000A68254EDFF8A490A41A1A6824F07F44C0
:10C97000A242A84609D8197CDF69A41A1544A1B9B6
:10C980001FB13B461A68A242F5D91C491C4A0B78D4
:10C9900012789A4222D01B491B4A41F823504FF487
:10C9A0008013C2F80031BDE8F087D3F814A083F8F3
:10C9B000108032689B695046194662B190478246A2
:10C9C0000028DDD04A4640F26511FFF7CFFE504601
:10C9D000FFF7BCFED4E71846D047D1E7531CDBB2C3
:10C9E000022B08BF00230B70D5E700BF00100140E9
:10C9F00068210020602100204C2100205D210020C2
:10CA00005C2100205421002000E100E0DC1E020037
:10CA10002DE9F04FA54AA64913780978A54889B0B1
:10CA200000680090994200F031810133DBB2022BA3
:10CA300008BF00231370A04A52F823B0009B9D4A00
:10CA40005B4423F07F431360012301939B4B9C4A7B
:10CA50001B78079319469B4B12681B6802939A4BED
:10CA600006921B780593934B4FF000091B680393C4
:10CA7000964610468C46CDF81090C8464C460CF1B0
:10CA8000FF3C5FFA8CFCBCF1FF0F5DD002990FFAFE
:10CA90008CF301EBC30511F8333095F801A0534531
:10CAA000EDD003EB43016A68AF7812F831600133CF
:10CAB000DBB29F4208BF0023022E02EBC1020ED060
:10CAC000032EECD10028EAD0C26904741046002A73
:10CAD000FAD195F801A096464FF00108DFE75668B5
:10CAE0000028DCD08642014601D112E01146CA6915
:10CAF000002AD4D09642F9D18E420BD0F76936681D
:10CB0000CF618FB13A6832443A6095F801A070461F
:10CB1000C5E70646C06950B1F7693668CF618646F9
:10CB20004FF00108002FEDD195F801A0B7E7674A53
:10CB30004FF00109C2F8089086460390CDF8149092
:10CB4000CDF81090C846D9E7B8F1000F40F0A380A7
:10CB5000049B13B1574B039A1A60B9F1000F03D02D
:10CB6000594B9DF814201A70019B002B40F0D8807F
:10CB7000069B1B1A18BF0123019300234D49DDF8C2
:10CB80001CA00C6850490490097803914C4900227C
:10CB9000D1F800B09646114602460AF1FF305FFA1E
:10CBA00080FABAF1FF0F00F0AC80029800EBCA00E7
:10CBB000009053B35E68D3F808901F46DB69444D7C
:10CBC000301B20F07F40A84257D809EB00053D609C
:10CBD0004FF001007960B9603874F961002A00F003
:10CBE0008B801668AE427FD2944603E00668AE4260
:10CBF00055D28446DCF81C00AD1B0028F6D13D6000
:10CC0000F861CCF81C70002BD4D1009D95F80190F0
:10CC10002878471C814500EB4006F8B2BDD095F856
:10CC200002C06F682870844508BF297007EBC608EA
:10CC300017F8366008BF0020012EEAD1D8F804703A
:10CC40003E7C002EE5D1B446D8F808607E60D8F866
:10CC50000C90C7F80890D8F81000F860D8F81400C5
:10CC6000B86103980028AAD06646301B184DC7F853
:10CC700004C020F07F40A842A7D9A61B26F07F461B
:10CC80004E4527D2A9EB06053D60A1E74FF0000B0A
:10CC9000CDF804B0DAE60A4BC3F800E058E7761B9B
:10CCA00006603D60F861CCF81C70ACE75C210020A8
:10CCB0005D210020602100205421002064210020FB
:10CCC000682100206C21002050210020001001402C
:10CCD000FEFF7F004FF0010039607960B960387461
:10CCE000F9614AB116680025751B1560BB46FA61EB
:10CCF0004FF0010E3A465CE7BB463A464FF0010E54
:10CD000057E773460498002B40F09A8090422BD14D
:10CD1000019B4BBB784A0023137009B0BDE8F08F2C
:10CD2000764A00210B460C460D461268B0B10668E3
:10CD30005E4500F2D980C7680560ABEB060B344452
:10CD4000C2693FB10099C361214421F07F418760EE
:10CD500041600346104601990028E8D100293FF4BC
:10CD60000DAF66490A6009E7002A00F0BA806449FD
:10CD7000644ED1F804553078D2F800E02B1B23F034
:10CD80007F43033300285FD09E452CBF04EB0E0386
:10CD9000E3185B4923F07F43C1F84035D1F80425FF
:10CDA000521B5B1B22F07F4223F07F4303329A42E7
:10CDB000B0D9D1F80435C1F840352F20013800BF73
:10CDC00000BF00BF00BF00BF00BF00BF00BF00BF6B
:10CDD00000BF00BF00BF00BF00BF00BF00BF00BF5B
:10CDE00000BF00BF00BF00BF00BF00BF00BF00BF4B
:10CDF00000BF00BF00BF00BF00BF00BF00BF00BF3B
:10CE000000BF00BF00BF00BF00BF00BF00BF00BF2A
:10CE100000BF00BF00BF00BF00BF00BF00BF00BF1A
:10CE200000BF00BF00BF00BF00BF00BF00BF00BF0A
:10CE300000BFC3D1344B4FF40032C3F8002169E77F
:10CE40002E4BC3F800B061E72F484FF48032C1F891
:10CE500044234FF40037C1F804230122C0F8807145
:10CE600007602F200A60013800BF00BF00BF00BF6D
:10CE700000BF00BF00BF00BF00BF00BF00BF00BFBA
:10CE800000BF00BF00BF00BF00BF00BF00BF00BFAA
:10CE900000BF00BF00BF00BF00BF00BF00BF00BF9A
:10CEA00000BF00BF00BF00BF00BF00BF00BF00BF8A
:10CEB00000BF00BF00BF00BF00BF00BF00BF00BF7A
:10CEC00000BF00BF00BF00BF00BF00BF00BF00BF6A
:10CED00000BF00BF00BF00BF00BF00BFC3D13270A2
:10CEE00052E7FFF78DFC15E709B104490A60A6EB8C
:10CEF0000B06066042E600BF50210020682100209A
:10CF0000001001405121002000E100E02DE9F04136
:10CF100012F0030502D00720BDE8F081002A3DD0C1
:10CF20000E46144698460746FFF76AFC06EB460392
:10CF300004F11801DB00CA181344A670A672A67487
:10CF40006361194E194B1A4861601A49E260C6F8CC
:10CF5000008005601C60184A184BDFF86CE0184E22
:10CF60002570032008704FF48010C0216570257271
:10CF70006572257465748EF800503570114CC3F8D5
:10CF8000800183F814131860C2F8087583F8111330
:10CF9000D2F8043523602846BDE8F081034B1A60BF
:10CFA0000720BDE8F08100BF4C2100206C2100204B
:10CFB00068210020642100200010014000E100E011
:10CFC0005D210020602100205C210020074B1B68B0
:10CFD00023B12AB120B10368187C18B1082070472A
:10CFE0000720704759745A61704700BF6C210020B8
:10CFF000304B1B6823B118B1042903D807207047B0
:10D0000008207047F0B54469002C4DD0447C012CB9
:10D010000CBF0E460026EFF30584C4F3080494B158
:10D02000103C65B2002D38DB05F1604404F5614425
:10D0300094F800436409E4B2022C39D0062C0CBFEA
:10D040000824102400E0102423445C7893F802E0C4
:10D050001F78651CEDB2AE4508BF0025AF4225D054
:10D0600004EB4404D3F804E0E4001EEB04071DD0F5
:10D070004FF0010C0EF804C0DFF844E078600E4C6D
:10D08000DEF80405B8604FF4801EF9603E617A61F5
:10D090005D70C4F800E10020F0BD084D04F00F04FD
:10D0A00025442C7E6409C6E70820F0BD0420F0BDAD
:10D0B0000024C9E76C21002000E100E0FCEC00E066
:10D0C00000100140254B1B6843B338B342692AB3B3
:10D0D0000022F0B40274EFF30582C2F30802FAB939
:10D0E000102213445A789D781C78511CC9B28D4285
:10D0F00008BF00218C4226D002EB42025C68D200BD
:10D10000A71820D0164D0226A6544FF4801278603E
:10D1100059700020C5F80021F0BC70470820704706
:10D12000103A51B2002912DB01F1604202F561426E
:10D1300092F800235209D2B2022A06D0062A0CBF66
:10D1400008221022CDE70420E6E70022C9E70549BE
:10D1500002F00F0211440A7E5209ECE76C21002014
:10D1600000E100E0FCEC00E020B1034B5B6D0360EC
:10D1700000207047032070477021002030B50E4C0E
:10D18000207883B010B1002003B030BD0125009598
:10D190004FF48063094A0A4900F024F910B10820CD
:10D1A00003B030BD00901023064A074900F086F90D
:10D1B0000028F4D12570E7E7D8250020D8210020E9
:10D1C000481F0200C8210020501F02000EB400B505
:10D1D00082B003AB02AA53F8041B42F8043D00F0EE
:10D1E00095FA02B05DF804EB03B0704710B5114634
:10D1F0001C461A46002000F003F8204610BD00BF70
:10D200002DE9F04F714F3B7883B082468B469046B4
:10D21000F3B9BB626E4A7B620221BB65FB62FB65B0
:10D220007B654FF4806010236A4D6B4C3B65396120
:10D230007961BA61BA6469493862FD61F81DFC64BC
:10D2400003F080FE6649384603F07CFE2023BB7164
:10D25000EFF311824FF0800181F311884FEA4A0306
:10D2600003EB0A0607EBC6060192D6F82C90B9F13B
:10D27000010F65D03DD3B9F1020F31D10AF1010A96
:10D280000AEB4A0A756A4FEACA0A4FF000091DE024
:10D29000326A641B444507EB0A012346A2EB0504EE
:10D2A00028BF43469C42486828BF1C46284459462C
:10D2B000224603F023FE336A25449D4208BF002521
:10D2C000B8EB0408A144A34475620BD0B36AAB4227
:10D2D00003F1FF34DCD8326A1344013B5C1BD9E70D
:10D2E0004FF00009019B83F31188484603B0BDE865
:10D2F000F08FB26A706A824250D9013A121A904590
:10D30000F0D8534407EBC3040AF1010A666A256AA0
:10D31000AD1B0AEB4A0AA84507EBCA074CD378684D
:10D320002A4630445946A8EB050603F0E7FD786825
:10D330000BEB0501324603F0E1FDC1466662D1E721
:10D34000B16A746AA14223D90139366AA1EB040992
:10D35000534407EBC304C145656A28BFC146761B29
:10D360000AF1010A0AEB4A0AB14507EBCA071AD3C8
:10D370007868324628445946A9EB060503F0BEFDFD
:10D3800078680BEB06012A4603F0B8FD6562A9E751
:10D39000366A88190138A0EB0409D9E7316A1144CB
:10D3A00001390A1AABE77868594628444A464D4481
:10D3B00003F0A4FD656295E778685946304442461B
:10D3C000464403F09BFDC14666628BE7982F002020
:10D3D000581F0200EC250020DC250020641F0200FD
:10D3E000681F02002DE9F0412E4C94F800E082B055
:10D3F00005460F4616469846BEF1000F28D0236911
:10D40000AB424BD9EFF311834FF0800181F31188C8
:10D41000019365B92846054404EBC504089A019BAD
:10D42000E26283F31188002002B0BDE8F081691C3C
:10D4300001EB4101C9006800431904EBC3036750C5
:10D44000214400229A624E60C3F820805A62E2E7CB
:10D450000222154B2261154862614FF48061144A23
:10D46000A361A3641023C4F828E02365C4F824E072
:10D47000C4F82CE0C4F858E0C4F85CE0C4F854E008
:10D48000E0612162E2640B49E01D03F05BFD0A49A3
:10D49000204603F057FD2023A371B0E74FF0FF3083
:10D4A000C2E700BF982F0020581F0200EC25002083
:10D4B000DC250020641F0200681F02002DE9F043F4
:10D4C000274C267883B005460F469046994626B3EA
:10D4D0006169A94241D9EFF311834FF0800181F3D3
:10D4E0001188019365B929460D4404EBC5040A9AD5
:10D4F000019BE26583F31188002003B0BDE8F0834F
:10D500006900481904EBC000002383658764C0F8F4
:10D510004C80C0F850904365E6E70222114B22612F
:10D52000114862614FF48061104AA361A364102323
:10D53000A66223656662E061A6652162E2640C4929
:10D54000E662E6656665E01D03F0FCFC09492046DD
:10D5500003F0F8FC2023A371BAE74FF0FF30CCE7CB
:10D56000982F0020581F0200EC250020DC25002009
:10D57000641F0200681F02002DE9F84F1746B942E8
:10D58000884606461D46DDF828A00B9AC0F0B480F8
:10D590000B464FF00109B3FBF7F39F4209F1010974
:10D5A000F9D9A94538BFA94612F0010B02D1BAF149
:10D5B000000F6BD1F068002861DBB268012402E043
:10D5C000013D07FB04F4012DFAD8B8FBF4F18F42BA
:10D5D000F7D94D4D06E0002821DBB4FBF7F4F4B198
:10D5E000B8FBF4F1736802F1010E9E4504FB11884B
:10D5F00009D83068695C8154F0687368C6F808E03F
:10D6000001307246F0609342E5D131683069FFF72E
:10D61000F7FDB268904234D04FF0FF33F360BBF1B6
:10D62000000F2CD0BAF1000F62D0D14567D220256F
:10D63000002407E0F368002B21DBBAF1000F59D07A
:10D64000CA451CD07368511C99420AF1FF3A07D8A9
:10D6500033689D54F2687368B160501CF0600A46EC
:10D660009342E7D11A4631683069FFF7C9FDB368C4
:10D67000984235D04FF0FF33F360BDE8F88FBDE836
:10D68000F88F0023F068B3601A46A4E793072AD402
:10D690002024CA458ED9B26807E0F068002830DB44
:10D6A000BAF1000F8AD0CA4588D07168501C8842F0
:10D6B0000AF1FF3A07D831688C54F2687168B0609B
:10D6C000531CF36002468A42E7D131683069FFF7A4
:10D6D00097FDB2689042CDD10023B3601A46DCE7D3
:10D6E000B4600022A6E7002D0CBF30242024D0E730
:10D6F000BDE8F88FBDE8F88F4FF0010951E7BDE8AC
:10D70000F88FBDE8F88F00BF701F02002DE9F04FC1
:10D710009DB004460390402300209146DFF84CB4AE
:10D720000B940CAA0C460792089309900A9014F8DF
:10D73000013B002B5AD0252B62D10027254614F837
:10D74000011BA1F123030D2B14D8DFE803F007130D
:10D7500013131313131310130D13130A47F00807B1
:10D76000ECE747F00207E9E747F00107E6E747F093
:10D770000407E3E7A1F13003092B4FF000040BD8B5
:10D7800004EB840401EB440415F8011FA1F13003FC
:10D79000092BA4F13004F3D92E2972D0002601E020
:10D7A00015F8011B01F0FB03682BF9D0642900F088
:10D7B000CC8045D9732900F08C8078D9752940F048
:10D7C000B280D9F800301A1DC9F8002019680197F5
:10D7D00007A8334600940A22FFF7CEFE0A986C1C75
:10D7E000002825DB14F8013B002BA4D100281FDD05
:10D7F000099A002A40F03E8110441DB0BDE8F08F28
:10D800000999089D4A1CAA4215D8079843540A98BA
:10D81000089B099201309A420A90E1D107990B982E
:10D82000FFF7EEFC099B984200F020814FF0FF309B
:10D830001DB0BDE8F08FA9427FF479AF0A46EDE74D
:10D84000582973D0632900F0EF802529C7D1099AA0
:10D85000089B541C9C4207D8079B99540A98089B24
:10D860000994013022460A909A42B8D107990B9840
:10D87000FFF7C6FC099B9842D8D100230A98099368
:10D88000ADE76978A1F13003092B05F101054FF0EF
:10D89000000687D806EB860601EB460615F8011F41
:10D8A000A1F13003092BA6F13006F3D97AE77029EC
:10D8B00095D1D9F800301A1DC9F800201968002246
:10D8C0000823019207A800931022FFF755FE0A983B
:10D8D00085E7D9F800301A1DC9F800201E68002419
:10D8E00016F8011B00293FF47AAF099B089F5A1CC8
:10D8F000BA420BD80798C1540A98089B0992013084
:10D900009A420A9005D00028EADA68E7BB42E7D1DC
:10D910001A4607990B98FFF773FC099B984285D12B
:10D920000A980994EFE778297FF459AFD9F80030C5
:10D930001A1DC9F800201968019707A833460094FA
:10D940001022FFF719FE0A9849E7D9F800301A1D8E
:10D95000C9F80020D3F800A08AEAEA73A3EBEA73BF
:10D96000092B4FF0010808DD8BFB0312DB17C3EB1B
:10D97000A203092B08F10108F6DCB04538BFB04618
:10D98000002C3ED0BAF1000F01DB790700D5013C35
:10D99000BA0701D5002E34D017F0010331D184B37A
:10D9A00044452ED90593099A2023864606E0BEF108
:10D9B000000FC0F2D9801CB3444521D00899501CF7
:10D9C000884204F1FF3409D807998B540A9A0899C0
:10D9D000099002F1010ECDF828E002468A42E6D114
:10D9E00007990B980493FFF70BFC099A049B90424C
:10D9F0007FF41CAF059A0992DDF828E00022D6E7F3
:10DA00007046BAF1000F3DDB7B0750D407F00303EB
:10DA1000022B5FD007A88DE89000334651460A22BA
:10DA2000FFF7AAFD0A98DAE6099AD9F80040089BA0
:10DA3000511C261D9942C9F8006008D8079B206830
:10DA400098540A98089B099101300A460A909A4214
:10DA50007FF4C5AE07990B98FFF7D2FB099B98425C
:10DA60007FF4E4AE002309930A98B8E600230A98ED
:10DA70000993B5E60CA90398FFF7C2FB0A98099A27
:10DA80001044BAE6099B089A591C9142CAF1000A4F
:10DA90005DD99342BAD107990B98FFF7B1FB099B67
:10DAA00098427FF4C3AE002309930A980EE0099BC5
:10DAB000089A591C91423BD8079A2B20D0540A98B7
:10DAC000089A0991013091420A9034D00028FFF65B
:10DAD00086AE9BE7002E9DD1002C43D0444599D9BA
:10DAE000099A06E00028FFF67AAE002C3AD04445A9
:10DAF00090D0089B511C994204F1FF3409D8079B30
:10DB00004FF0300098540A98089B099101300A465A
:10DB10000A909A42E6D107990B98FFF771FB099B8F
:10DB200098427FF483AE00230A9809931A46D9E7F6
:10DB300093427FF46BAF07990B98FFF761FB099B4A
:10DB400098427FF473AE00230A980993BEE7079AC0
:10DB50002D20D0540A98089A0991013091420A90D8
:10DB6000B4D198E7002455E7704638E667666666E4
:10DB700082B00190019B002B43D0019B013B01939C
:10DB800040F2E730013800BF00BF00BF00BF00BF58
:10DB900000BF00BF00BF00BF00BF00BF00BF00BF8D
:10DBA00000BF00BF00BF00BF00BF00BF00BF00BF7D
:10DBB00000BF00BF00BF00BF00BF00BF00BF00BF6D
:10DBC00000BF00BF00BF00BF00BF00BF00BF00BF5D
:10DBD00000BF00BF00BF00BF00BF00BF00BF00BF4D
:10DBE00000BF00BF00BF00BF00BF00BF00BF00BF3D
:10DBF00000BF00BF00BF00BF00BFC3D1019B002B0F
:10DC0000BBD102B0704700BF002810B418DB00F190
:10DC1000604303F561434901C9B283F80013C3B2FD
:10DC20004009800000F1604000F5614003F01F02F0
:10DC300001239340C0F8803103605DF8044B7047C6
:10DC4000C3B2044A03F00F0449012244C9B2117659
:10DC5000E6E700BFFCEC00E038B5194C94F85450EE
:10DC60000DB1082038BD4FF0FF3306210846FF22D2
:10DC700023636363A363E36323646364A364E36470
:10DC800023606360A360E36023616361A361E36178
:10DC9000236284F850306362A36284F85230E362F6
:10DCA00084F8533084F85120FFF7AEFF054A4FF057
:10DCB00000410123C2F8041384F85430284638BDCB
:10DCC000EC29002000600040034B93F85400003022
:10DCD00018BF0120704700BFEC290020F0B55E4C52
:10DCE000251895F93030002B01DB0820F0BD91F8A4
:10DCF00003E0BEF1000F50D02368013300F0A6808E
:10DD00000826012554F8253001334CD06B1C54F8FB
:10DD10002370013748D0AB1CB3423CD254F8237077
:10DD2000013741D0EB1CB34235D254F82370013790
:10DD30003AD02B1DB3422ED254F82370013733D082
:10DD40006B1DB34227D254F8237001372CD0AB1D82
:10DD5000B34220D254F82370013725D0EB1DB342D3
:10DD600019D254F8237001371ED005F10803B342CD
:10DD700011D254F82370013716D005F10903B342CC
:10DD800009D254F8237001370ED00A35B54202D2B9
:10DD9000E36A013358D00420F0BD236A01332DD04B
:10DDA0000C260925AEE72B4626185DB244F8232041
:10DDB00086F83050BEF1000F26D08B78A3B94A7890
:10DDC0004FF0A04600F5E073920046F82320CB7890
:10DDD000F3B9083D2C44097894F8502042EA8112A6
:10DDE00084F850201846F0BD830003F1A043D3F817
:10DDF000002722F00202C3F80027E8E7082685F88A
:10DE00003060334622623546234483F84800D4E725
:10DE1000AB0003F1804303F5C0430978D3F8104504
:10DE200024F4473424F44074C3F810450202090472
:10DE3000D3F8100501F4403102F4F8520A430243CA
:10DE4000C3F810250020F0BD0B23ADE7002385F8B3
:10DE5000303022601D46B0E7EC290020F0B42E4D92
:10DE60002E1882B096F93030072B1CDD2B4493F826
:10DE700048309B09032B41D0012B14BF4FF4403194
:10DE80004FF40031800000F1A040D0F8002722F4C8
:10DE90004032C0F80027D0F800370B43C0F80037F5
:10DEA00002B0F0BC7047DAB2072AF9D8980000F146
:10DEB000804000F5C04003F140029200D0F81045C8
:10DEC00092B202F18042002744F0010402F5C04200
:10DED000C0F810450197019817600029E0D096F925
:10DEE000302055F82220002ADAD001220B4902FA0C
:10DEF00003F3C1F8043302B0F0BC70474FF0A04206
:10DF00000123D2F81025834013420CBF4FF4003197
:10DF10004FF44031B6E700BFEC290020006000401C
:10DF20004FF0A043D3F8103523FA00F000F00100C1
:10DF3000704700BF2DE9F043A64B1A68012A83B051
:10DF400000F05C810025A44B1A68012A00F067816B
:10DF5000A24B1A68012A00F07481A14B1A68012AA9
:10DF600000F081819F4B1A68012A00F08E819E4B40
:10DF70001A68012A00F09B819C4B1A68012A00F064
:10DF8000A8819B4B1A68012A00F0B581994B1A6849
:10DF9000012A00F0C281002615F0FF0F17D0EF070D
:10DFA00000F1DF81AC0700F1EB81680700F1F78138
:10DFB000290700F10382EA0600F10F82AB0600F1A7
:10DFC0001B826F0600F127822C0600F13382002DA0
:10DFD00002DB03B0BDE8F083874C94F95010481C75
:10DFE0004FF0FF394FF000084FF0010700F0A98013
:10DFF000C9B221F0C00029FA00F515F001051BD0C7
:10E000002318890993F9303054F82330002B00F09D
:10E01000CB80032907FA00F500F0CA80820002F1E4
:10E02000A0423540D2F800E7CEF3014E40F0A9807F
:10E03000BEF1030F00F0338294F951104A1C22D034
:10E04000C9B221F0C00029FA00F3DB071BD5231861
:10E05000890993F9303054F82320002A00F0B28067
:10E06000032907FA00FC00F0B280830003F1A0430B
:10E0700016EA0C0FD3F800E7CEF3014E63D1BEF1E0
:10E08000030F00F0F88194F95210481C22D0C9B255
:10E0900021F0C00029FA00F3DA071BD523188909FB
:10E0A00093F9303054F82320002A00F084800329AB
:10E0B00007FA00FC00F08380830003F1A04316EA16
:10E0C0000C0FD3F800E7CEF3014E46D1BEF1030F9B
:10E0D00000F0BD8194F953104B1C21D0C9B221F03E
:10E0E000C00029FA00F919F0010F19D02318890985
:10E0F00093F9303054F82390B9F1000F4DD0032933
:10E1000007FA00FE4DD0830003F1A04316EA0E0F7C
:10E11000D3F80027C2F3014229D1032A00F0098174
:10E12000002D3FF456AF4FF0A043C146D3F8103551
:10E130009E423FF44EAF94F95010481C1E467FF4A7
:10E1400057AF002578E7BEF1020F9CD1032900F0FC
:10E15000B981002A97D0904795E7BEF1020FB9D157
:10E16000032900F0B281002AB4D09047B2E7022A16
:10E17000D6D1032900F0AC81B9F1000FD0D0C84747
:10E18000CEE7BEF1020FDCD1032900F0A481002507
:10E19000002B3FF451AF98474EE70329C0D107FA4F
:10E1A00000FE48EA0E08AEE70329CAD107FA00F5D7
:10E1B00048EA050832E703298CD107FA00FC48EA4F
:10E1C0000C0879E703297FF45EAF07FA00FC48EA00
:10E1D0000C084AE70061004004610040086100400B
:10E1E0000C61004010610040146100401861004063
:10E1F0001C6100407C610040EC290020B74AD2F845
:10E20000045315F001053FF49EAE00221A601B680E
:10E210000093009BB24B1A68012A7FF499AEAF4A73
:10E22000D2F8042392077FF593AE00221A601B6890
:10E230000093009BAB4B1A68012A45F002057FF45E
:10E240008CAEA64AD2F8042357077FF586AE00228B
:10E250001A601B680093009BA34B1A68012A45F0C3
:10E2600004057FF47FAE9D4AD2F8042316077FF59C
:10E2700079AE00221A601B680093009B9B4B1A68C2
:10E28000012A45F008057FF472AE944AD2F80423BF
:10E29000D4067FF56CAE00221A601B680093009BC9
:10E2A000934B1A68012A45F010057FF465AE8B4A3E
:10E2B000D2F8042390067FF55FAE00221A601B6837
:10E2C0000093009B8B4B1A68012A45F020057FF4D0
:10E2D00058AE824AD2F8042351067FF552AE00228E
:10E2E0001A601B680093009B834B1A68012A45F053
:10E2F00040057FF44BAE794AD2F8042312067FF52D
:10E3000045AE00221A601B680093009B7B4B1A6885
:10E31000012A45F080057FF43EAE00221A601B689A
:10E3200001934FF0A043019AD3F8106545F00045E2
:10E3300032E603297FF420AF4FF4003ED3F80027E4
:10E3400022F44032C3F80027D3F8002742EA0E0235
:10E35000C3F80027B9F1000F3FF4E5AE0135EDB287
:10E360000DE75E4B664CD3F81005D3F81015236803
:10E37000C0F30420C1F301419847AC077FF515AE07
:10E38000564B5F4CD3F81405D3F814156368C0F3EB
:10E390000420C1F30141984768077FF509AE4F4B50
:10E3A000574CD3F81805D3F81815A368C1F30141E9
:10E3B000C0F30420984729077FF5FDAD474B504C2B
:10E3C000D3F81C05D3F81C15E368C0F30420C1F38F
:10E3D00001419847EA067FF5F1AD404B484CD3F830
:10E3E0002005D3F820152369C0F30420C1F30141AF
:10E3F0009847AB067FF5E5AD384B414CD3F8240583
:10E40000D3F824156369C0F30420C1F30141984790
:10E410006F067FF5D9AD314B394CD3F82805D3F8C9
:10E420002815A369C0F30420C1F3014198472C06C5
:10E430007FF5CDAD294B324CD3F82C05D3F82C15F4
:10E44000E369C0F30420C1F301419847BFE5032904
:10E450007FF489AE4FF4003CD3F800E72EF4403E41
:10E46000C3F800E7D3F800E701354EEA0C0EEDB231
:10E47000C3F800E777E603297FF46BAE4FF4003C66
:10E48000D3F800E72EF4403EC3F800E7D3F800E7E6
:10E4900001354EEA0C0EEDB2C3F800E759E6032948
:10E4A0007FF476AE4FF4003ED2F8005725F44035A5
:10E4B000C2F80057D2F8005745EA0E05C2F80057D7
:10E4C000012565E64FF4403CDAE74FF4403CC3E7F2
:10E4D0004FF4403E32E74FF4403EE5E70060004035
:10E4E00004610040086100400C6100401061004080
:10E4F00014610040186100401C6100407C610040D4
:10E50000EC290020064B1B685B0701D408207047EC
:10E5100020B1044B5B780360002070470E207047E9
:10E52000102B0020442A00204FF0A042D2F80435DE
:10E53000D94301F4002103F40023C2F80815C2F8FE
:10E540000C3570470D282DE9F04707D00E2837D03D
:10E550000F2837D0102837D0BDE8F08700250129D3
:10E56000044611D01FD30229F6D1204B05EB4505F7
:10E570001D446E78002EEFD01D4B1B68002BEBD096
:10E580003046BDE8F0471847184F4FEA450808EBFA
:10E590000503FA18FE5C5378C3B9A8444744154BE9
:10E5A000BA785A55E6E71448FEF78CFD0F4B114A2E
:10E5B00005EB45010B44525D9E78B242CCD1D9E7C0
:10E5C0000125CCE70225CAE70325C8E70B4BDFF896
:10E5D00030901968084801EB810149004A46FEF76E
:10E5E00007FD0028D9D189F80040D6E7602B00202C
:10E5F000902B0020982B0020402B00203C2B00204B
:10E60000142B0020C94B1B68DB0700D4704770B582
:10E61000C74B1C78172C22D8DFE814F0680075006F
:10E620007500AE00D500F5001A013D013900220049
:10E6300039002200180050015001500150015001D2
:10E640004E0058009E007801180018004FF0A043BB
:10E650004FF4F0110022C3F80C15C3F8082570BD63
:10E660004FF0A042B34CD2F80435B348D94301F47B
:10E67000802103F48023C2F80815C2F80C35216804
:10E68000002201EB8101BDE87040FEF7B1BC4FF004
:10E69000A042A84CD2F80435A748D94301F4802100
:10E6A00003F48023C2F80815C2F80C352168002253
:10E6B000BDE87040FEF79CBC4FF0A0434FF4F01152
:10E6C0000022C3F80815C3F80C2570BD4FF0A04315
:10E6D00000224FF4E0104FF40031C3F80805C3F8EE
:10E6E0000C25C3F80C15C3F8082570BD934B1B68A7
:10E6F0004FF0A042DB4303F4F0130021C2F80835C9
:10E70000C2F80C1570BD8D4A12684FF0A040D2437C
:10E7100002F4E0120025C0F80825C0F80C55D0F826
:10E72000042582F4F01212F4003200F03881022C39
:10E730004FF40032C0F8082514BF28211221C0F878
:10E740000C557C4A1C7012687B4802FB01F1BDE845
:10E7500070400022FEF74CBC4FF0A04300224FF463
:10E76000D0104FF48021C3F80805C3F80C25C3F876
:10E770000C15C3F8082570BD704A12684FF0A04010
:10E78000D24302F4E0120024C0F80825C0F80C457A
:10E79000D0F8042582F4F01212F4003200F0F78071
:10E7A0004FF40032C0F808250821C0F80C45614A32
:10E7B0006148126803241C7002FB01F1BDE870403F
:10E7C0000022FEF715BC5D4A12684FF0A040D2430C
:10E7D00002F4E0120024C0F80825C0F80C45D0F877
:10E7E000042582F4F01212F4003200F0C1804FF4DC
:10E7F0000032C0F808252821C0F80C454D4A4E4883
:10E8000012680424D7E74D4A12684FF0A041D24362
:10E8100002F4E0120020C1F80825C1F80C05D1F877
:10E82000042582F4F01212F4003200F0A9804FF4B3
:10E830000032C1F80825C1F80C053E4A3E4811686F
:10E8400005241C7049000022BDE87040FEF7D0BBD3
:10E850003A4A12684FF0A041D24302F4E01200207D
:10E86000C1F80825C1F80C05D1F8042582F4F0128E
:10E8700012F4003275D04FF40032C1F80825C1F807
:10E880000C052C4A2C48116806241C700022BDE897
:10E890007040FEF7ADBB294B1B684FF0A042DB4335
:10E8A000002103F4E0134FF40030C2F80835C2F839
:10E8B0000C15C2F80C05C2F8081570BD2048FEF70B
:10E8C00001FCD4F1110402463ED000283CD11B4D7E
:10E8D0004FF40023012C2B6010D0C823194E15498A
:10E8E0001748096803FB04F3A6FB03435B0901FB1C
:10E8F00003F1FEF77DFB2B6803F4F0134FF0A04209
:10E900000021C2F80C35C2F8081570BD4FF0A043C5
:10E9100000224FF4C0104FF4C021C3F80805C3F81B
:10E920000C25C3F80C15C3F8082570BD6C2B00200E
:10E93000942B00203C2B0020702B0020182B002053
:10E940001C2B00201F85EB511A4A13684FF0A04082
:10E95000002103F4F013C0F80835C0F80C1511605D
:10E9600070BD4FF40030C1F80C05C1F8082588E7E8
:10E970004FF40031C0F80C150421C0F808253DE71C
:10E980004FF40030C1F80C05C1F8082555E74FF4E5
:10E990000031C0F80C150221C0F8082507E74FF434
:10E9A0000031022CC0F80C1514BF04210221C0F85C
:10E9B0000825C6E6182B002003780D2B15D00E2B4A
:10E9C00015D00F2B04D0102B08BF032301D07047A4
:10E9D0000223084A03EB4303134458780028F6D077
:10E9E000054B1B68002BF2D018470023F1E70123E9
:10E9F000EFE700BF602B0020902B0020032803D9F5
:10EA000000230B7000207047074A4FF0A04352F8D4
:10EA10002000D3F8102501238340934314BF012322
:10EA200000230B7000207047A81F0200C04B1A681B
:10EA300012F0010201D11046704770B50346172845
:10EA400000F2ED81DFE810F03A014A014A017D0051
:10EA5000A500CD00F30059002F0018002F0018006A
:10EA600018017E017E017E017E017E01A701260143
:10EA700030014400700070004FF0A042AD4CD2F85D
:10EA80000435AD48D94301F4802103F48023C2F852
:10EA90000815C2F80C352168002201EB8101BDE8A0
:10EAA0007040FEF7A5BA4FF0A042A24CD2F8043550
:10EAB000A148D94301F4802103F48023C2F808154A
:10EAC000C2F80C3521680022BDE87040FEF790BA0C
:10EAD0009A484FF0A0434FF4C01200214FF4C025D4
:10EAE0001524C3F80825C3F80C150A46C3F80C55BD
:10EAF000C3F808150470104670BD914B8F4C1B680D
:10EB00004FF0A041DB43002003F4E0134FF4003644
:10EB10000725C1F808350246C1F80C05C1F80C6597
:10EB2000C1F808052570E6E74FF0A041834C4FF48B
:10EB3000F0120020C1F80C25C1F808050246237028
:10EB4000D9E77F4B1B684FF0A042DB4303F4E0138F
:10EB50000020C2F80835C2F80C05D2F8043583F459
:10EB6000F01313F4003300F043814FF40033C2F884
:10EB700008350821C2F80C056E4A704B12686E48C1
:10EB800003241C7002FB01F1BDE870400022FEF777
:10EB90002FBA6B4B1B684FF0A042DB4303F4E0132A
:10EBA0000020C2F80835C2F80C05D2F8043583F409
:10EBB000F01313F4003300F023814FF40033C2F854
:10EBC00008352821C2F80C055A4A5C4B12685A488D
:10EBD00004241C7002FB01F1BDE870400022FEF726
:10EBE00007BA574B1B684FF0A042DB4303F4E01316
:10EBF0000021C2F80835C2F80C15D2F8043583F4A8
:10EC0000F01313F4003300F003814FF40033C2F823
:10EC10000835C2F80C15474A484B11684648052488
:10EC20001C7049000022BDE87040FEF7E1B9444B7A
:10EC30001B684FF0A042DB4303F4E0130021C2F84D
:10EC40000835C2F80C15D2F8043583F4F01313F428
:10EC5000003300F0BB804FF40033C2F80835C2F82F
:10EC60000C15364B334A3448116806241C700022B8
:10EC7000BDE87040FEF7BCB94FF0A0432F484FF4F9
:10EC8000F01200210C24C3F80C25C3F808150A461D
:10EC9000047030E74FF0A04328484FF4E012002101
:10ECA0004FF4003513241CE74FF0A04323484FF4E2
:10ECB000D01200214FF48025142412E7204B1F4C62
:10ECC0001B684FF0A040DB43002103F4F013C0F8B1
:10ECD00008350A46C0F80C1521700CE7184A12686E
:10ECE0004FF0A040D24302F4E0120024C0F80825FF
:10ECF000C0F80C45D0F8042582F4F01212F400326A
:10ED00006BD0022B4FF40032C0F8082514BF282125
:10ED10001221C0F80C45074A084C1268237002FB08
:10ED200001F105480022BDE87040FEF761B900BF5F
:10ED30006C2B00203C2B0020702B0020942B0020FB
:10ED4000182B002004463748FEF7BCF9D4F1110314
:10ED500002462ED068BB344D4FF40021012B2960B0
:10ED600011D0C824314E32492E48096804FB03F300
:10ED7000A6FB03435B0901FB03F1FEF739F92968A0
:10ED8000024601F4F0114FF0A0430020C3F80C1527
:10ED9000C3F80805AFE64FF0A04326484FF4F01241
:10EDA00000211224C3F80825C3F80C150A46047084
:10EDB000A1E61D490B684FF0A044002003F4F013B6
:10EDC000C4F80835C4F80C05086094E64FF4003127
:10EDD000C2F80C15C2F8083543E74FF40031022B96
:10EDE000C0F80C1514BF04210221C0F8082592E7D1
:10EDF0004FF40031C2F80C150221C2F80835BBE609
:10EE00004FF40031C2F80C150421C2F80835DBE6D6
:10EE10004FF40031C2F80C15C2F80835FBE60022A9
:10EE200069E600BF1C2B0020182B00201F85EB512A
:10EE30003C2B0020942B0020F8B5224D224E234B72
:10EE40002860044610F0020031601A6011D0204B97
:10EE500020484A080E270D210F2610251970DF7053
:10EE600004219E715D72FDF701FCF8B1E30702D445
:10EE7000F8BDE2070CD54FF0A0434FF4F01200218B
:10EE8000C3F80825C3F80C15C3F818250028EFD1DE
:10EE9000114A12480021FEF799F80028E8D1104ADB
:10EEA00010480121BDE8F840FEF790B8FDF738FCA6
:10EEB0000028DBD101460C4A0C48FEF787F8E10731
:10EEC000E4D5D8E76C2B00203C2B0020902B0020B1
:10EED000602B0020801F020005E60100B81F020021
:10EEE00029E50100A01F0200B9E90100A41F0200EA
:10EEF000032801D907207047012A12D0012917D011
:10EF000008D30229F6D10D4B00EB4000034400204A
:10EF10005A707047094B00EB4000034400209A7080
:10EF20007047012901D00022E8E700F10D02D2B2BA
:10EF300000EB400301490020CA547047602B0020B9
:10EF400070B41D4E1D4DD6F800271D4C1D4910F004
:10EF5000010F14BF4FF44033002322F44032134317
:10EF6000C6F80037D5F8002710F0020F22F440321F
:10EF700014BF4FF4403300231343C5F80037D4F8CF
:10EF8000002710F0040F14BF4FF44033002322F485
:10EF900040321343C4F80037D1F8002710F0080FAF
:10EFA00022F4403214BF4FF4403300231343C1F81E
:10EFB0000037002070BC704734000050380000500B
:10EFC0003C0000504000005008B50320FFF7B8FF98
:10EFD00010B1062808BF002008BD00BF10B5038887
:10EFE000102B08D0112B05D1264B1868013818605A
:10EFF00038B110BD10BD234C216881B101312160B1
:10F0000010BD01220221FFF773FF48B3072827D064
:10F010001D4B1B68002BECD0BDE8104018470122A7
:10F020000846FFF765FF48B1072807D0164B1B6855
:10F0300003B1984721680131216010BD07220221E8
:10F040000120FFF755FF08B10728EFD10422022164
:10F050000020FFF74DFF0028ECD00728E6D1E9E7B4
:10F06000072202210120FFF743FF08B10728CFD173
:10F07000002108460A22FFF73BFF0028B9D00728E5
:10F08000C6D110BDA02B00209C2B002010B5204B1A
:10F0900082B01860B1B10C4600200DF10601FFF7F7
:10F0A000ADFC08B102B010BD0DF107010120FFF762
:10F0B000A5FC0028F6D19DF8073013BB9DF806305B
:10F0C00013BB2370134B186810B1002002B010BDA1
:10F0D00001220221FFF70CFF08B10728E2D1072225
:10F0E00002210120FFF704FF08B10728DAD100212F
:10F0F00008460A22FFF7FCFE0028E6D00728D1D1F7
:10F10000E3E702232370DDE70B232370DAE700BF78
:10F110009C2B0020A02B002076DF70477ADF704701
:10F120007CDF70477FDF7047A9DF70473CDF7047A7
:10F1300048DF704710B5054A0446C421FDF716FBA9
:10F140002046BDE81040FDF701BB00BFF41F0200E0
:10F15000037803B1704710B5084B3B211888FFF7BF
:10F16000DBFF044600B910BD054AB921FDF7FEFAE0
:10F170002046BDE81040FDF7E9BA00BFE8200020B6
:10F18000F41F0200032806D110B50220FFF74EFC41
:10F19000044608B910BD7047044A4FF48071FDF76A
:10F1A000E5FA2046BDE81040FDF7D0BAF41F020092
:10F1B000072810B52ED00A2815D0042800D010BD7D
:10F1C000244B13211888FFF7A7FF30F008030446EB
:10F1D000F5D0214A40F27911FDF7C8FA2046BDE882
:10F1E0001040FDF7B3BA0020FFF720FC044648BBEF
:10F1F000FFF7EAFE0446E8B9FFF798FF0446002847
:10F20000DDD0154AEE21FDF7B1FA2046BDE81040E9
:10F21000FDF79CBA01F018F930F008030446CED08F
:10F220000D4A40F28111FDF7A1FA2046BDE81040D9
:10F23000FDF78CBA084AEA21FDF798FA2046FDF757
:10F2400085FAD9E7044AE621FDF790FA2046FDF752
:10F250007DFACDE7E8200020F41F020038B504460F
:10F2600001F000FA21463B4801F05CFA2388112B9B
:10F270003FD028D9132B13D0522B09D1364A002363
:10F28000108819461A46FFF74FFF0546002857D148
:10F29000204601F05DF82046BDE83840FFF79EBEED
:10F2A0002D4A0023108885211A46FFF73BFF0546AB
:10F2B0000028EDD0294A4FF49371FDF757FA2846FC
:10F2C000FDF744FAE4E7102BE2D125490020FDF7D1
:10F2D0007DFF0720FFF7AAFB054640BB1E4BA28817
:10F2E0001A80204601F034F82046BDE83840FFF788
:10F2F00075BE1C490020FDF769FF0020FFF796FB53
:10F30000054658B9144B20464FF6FF721A8001F09B
:10F310001FF82046BDE83840FFF760BE0F4A40F2B4
:10F320001F11FDF723FA2846FDF710FAEAE70B4A0A
:10F330004FF48C71FDF71AFA2846FDF707FACDE76E
:10F34000064A4FF49671FDF711FA2846FDF7FEF9CB
:10F350009EE700BFB42D0020E8200020F41F02002B
:10F36000C01F0200D81F0200072A00D07047F0B566
:10F370000C4683B00F490020FDF728FF26786378FC
:10F3800020796179A778E578A2798DF8027003EB8E
:10F390000623ADF800308DF803508DF804008DF889
:10F3A00005108DF8062002AB13E9030000F010FAF7
:10F3B00003B0F0BD0820020070B56420A8B0FEF7CD
:10F3C000D7FBFDF7DBFE00231846984A0521FDF721
:10F3D0009DFD40B10446964A40F2CD11FDF7C6F9B5
:10F3E0002046FDF7B3F9934A40F6CD410320FFF7DD
:10F3F00023FD044638B18E4A40F2B111FDF7B6F94B
:10F400002046FDF7A3F91AA90020FFF73FFE0446A6
:10F4100038B1874A4FF4DA71FDF7A8F92046FDF7B5
:10F4200095F9854B85491A6828AC002344F8702D5E
:10F430004822204601F062FC054638B17C4A4FF470
:10F44000AA71FDF793F92846FDF780F91AAA012160
:10F45000002001F0BBFC054638B1754A4FF4AD7190
:10F46000FDF784F92846FDF771F9754801F0C6FCEF
:10F47000054638B16E4A40F25D11FDF777F928462E
:10F48000FDF764F91AA801F0DDFC054638B1684AB9
:10F490004FF4B071FDF76AF92846FDF757F969484E
:10F4A00001F06CFC054638B1614A4FF4B271FDF7CA
:10F4B0005DF92846FDF74AF99DF83030624801228F
:10F4C00062F3030362F307138DF8303001F042FD5D
:10F4D0005D4982B22046FFF723FE054630B1544A0B
:10F4E0006C21FDF743F92846FDF730F90822002189
:10F4F0001AA8FDF72DF8554B1A931AA84FF0C873A8
:10F500001B93FFF70BFE054630B1494A7621FDF704
:10F510002DF92846FDF71AF9042200211AA8FDF753
:10F5200017F84B4B4B481A931AA901F023F90546DB
:10F5300030B13F4AA321FDF719F92846FDF706F936
:10F5400000210D4638222046FDF702F80226294602
:10F55000052338221AA88DF832508DF830608DF8C6
:10F5600033300126FCF7F4FF29463B4B1F9324223E
:10F5700003A8ADF87860FCF7EBFF0095204603AADE
:10F58000B4244025354B08941AA98DF818600795C6
:10F5900000F0F6FD044638B1254A4FF4D171FDF76D
:10F5A000E5F82046FDF7D2F81C2200211AA8FCF746
:10F5B000CFFF032400232A492A4A8DF874401AA851
:10F5C0004FF420364FF470251A93ADF876308DF84D
:10F5D00078301B961C951F91209201F009F8044683
:10F5E00030B1134ADB21FDF7C1F82046FDF7AEF834
:10F5F00000F0C4F8032000F087FE044638B10C4A3E
:10F6000040F2D911FDF7B2F82046FDF79FF8084DFA
:10F61000FFF78EFD04460028FAD02A4640F2BF11BB
:10F62000FDF7A4F82046FDF791F8F1E7A42B0020A0
:10F63000F41F0200B1F10100BC1F02006C2D00207C
:10F64000E81F00205DF20100FC1F020010003C00DA
:10F6500069F30100B42D0020E420002085F10100B1
:10F6600051F1010035F1010070B540488379013353
:10F67000DBB23C2B84B083710FD0194602888378AB
:10F68000C67805794479039102940195009638492A
:10F690000020FDF79BFD04B070BD44790134E4B255
:10F6A00000213C2C4471817104D002888378C67893
:10F6B0000579E8E7057941710135EDB2182D05713D
:10F6C00004D00C4602888378C678DCE78378017121
:10F6D000022B0DD0274CC278E45C0132D2B2013447
:10F6E000A2421646C2701AD002880C460D46CAE7DE
:10F6F0000288214B9107A3FB02131BD159096424F3
:10F7000004FB112189B2A9B1C6780136F6B21E2ECA
:10F710001DD00021C6700C460D460223B3E701330D
:10F72000DBB201260D2B8370C670028815D00C4603
:10F730000D46A8E7DB094FF4C87101FB13239BB208
:10F74000002BE1D0C6780136F6B21D2EE1D101269C
:10F7500003230021C6708370E9E7013292B28670FC
:10F7600002800C460D4633468DE700BFD02D0020A9
:10F7700040200200202002001F85EB5110B5104AE6
:10F7800010480121FDF722FC80B900224FF400410E
:10F790000D48FDF72DFC044630B10C4A4D21FCF715
:10F7A000E5FF2046FCF7D2FF012010BD0446074AC2
:10F7B0004921FCF7DBFF2046FCF7C8FFE5E700BF67
:10F7C00069F6010054200200D82D002030200200EC
:10F7D00070B483B002AB03E903000B4BBDF80060CB
:10F7E0009DF802509DF803409DF804009DF8051017
:10F7F0009DF806201E809D70DC70187159719A71F9
:10F8000003B070BC704700BFD02D002071DF70477F
:10F8100072DF704779DF70477DDF704765DF7047C3
:10F820002DE9F04F85B00488DDF83880BDF83CA0A4
:10F83000B8F800500195002C57D099460023174680
:10F840008B4605461C4603E02A880134A24228DD87
:10F850006A6852F82400039000220DF10B0103A8FE
:10F86000FFF7DCFF064630BB9DF80B20BA42EBD118
:10F870002BB3B8F80020D31953451BDC4A440DF1D3
:10F880000B0103A80123FFF7C9FF98BBB8F80010CC
:10F890009DF80B200A44A8F800202A880134A242CF
:10F8A000D6DC13B3B8F80030019A013B9B1A9BB227
:10F8B000FF2B17D90C26304605B0BDE8F08FB8F8FD
:10F8C00000305A1C3B440233534592B2F2DCA8F894
:10F8D000002009F802B0B8F80020013292B2A8F86E
:10F8E0000020CBE709F80230E5E70026304605B0F6
:10F8F000BDE8F08F0646304605B0BDE8F08F00BF8A
:10F900002DE9F047002314881380436B84B0BBB10A
:10F91000022C03D80C2004B0BDE8F08702261D7825
:10F920000E70138801339BB211261380CE541388B6
:10F9300001339BB21380CD54138801339BB21380E3
:10F94000056B002D6FD003F11206A642E2D81126F6
:10F95000CE54138801339BB210261380CE541388E3
:10F9600001339BB21380EE7BCE54138801339BB2DC
:10F970001380AE7BCE54138801339BB213806E7B11
:10F98000CE54138801339BB213802E7BCE54138840
:10F9900001339BB21380EE7ACE54138801339BB2AD
:10F9A0001380AE7ACE54138801339BB213806E7AE3
:10F9B000CE54138801339BB213802E7ACE54138811
:10F9C00001339BB21380EE79CE54138801339BB27E
:10F9D0001380AE79CE54138801339BB213806E79B5
:10F9E000CE54138801339BB213802E79CE541388E2
:10F9F00001339BB21380EE78CE54138801339BB24F
:10FA00001380AE78CE54138801339BB213806E7886
:10FA1000CE54138801339BB213802D78CD541388B4
:10FA200001339BB2138090F82E50002D40F00781D7
:10FA3000154690F82D200E460746002A40F0178103
:10FA4000BA78002A40F03E81FA78A2B1D91CA142CE
:10FA50003FF660AF0221F1542B8801339BB20121A4
:10FA60002B80F1542B880B449BB22B80F2542B88B3
:10FA70000B449BB22B807A68AAB1D91CA1423FF6F5
:10FA800049AF022192F90020F1542B8801339BB237
:10FA90000A212B80F1542B8801339BB22B80F25426
:10FAA0002B8801332B803B89002B40F08F813B8AD0
:10FAB000002B40F0A6813B8B002B40F0BB81396AC4
:10FAC000002944D02B889A1DA2423FF623AF0A8812
:10FAD000052A40F294816FF4486802EB080080B276
:10FAE0004FF27D3E704540F28A814888052840F2F9
:10FAF00086816FF4486C84441FFA8CFCF44540F214
:10FB00007E814FF6FF7E724504D0704502D082425E
:10FB100000F275810522F2542B8801339BB2122228
:10FB20002B80F2542B8801339BB22B800A88F2542D
:10FB30003344120A5A702B8802339BB22B804A88B6
:10FB4000F2543344120A5A702B8802332B80D7F8B0
:10FB50002480B8F1000F31D0B8F8041028888A1C2E
:10FB6000831C1344A3423FF6D5AEFE2A3FF6D2AE25
:10FB7000033131542B8801339BB2FF222B80F25486
:10FB80002B8801339BB22B80B8F80020F254334409
:10FB9000120A5A702888023080B22880B8F80420EF
:10FBA00062B1D8F80810002900F02981304401F032
:10FBB000A5F9B8F804202B8813442B8097F82C3033
:10FBC000002B40F0A180387800283FF4A4AE3B8899
:10FBD000012B00F014812B8803F1020EA6453FF69D
:10FBE00099AE012805D17A7802321A449442FFF482
:10FBF00091AEA21ED21A04A992B221F8082D06EBEA
:10FC00000E00FFF709FE00287FF485AE3B78022B3B
:10FC100000F02981012B00F0D48013460821FE2B2F
:10FC20003FF678AE2A885C1CB4542A88013292B21E
:10FC30002A80B1542A88013213442B806BE6DE1CE3
:10FC4000A6423FF667AE0226CE54138801339BB21C
:10FC50001C261380CE54138801339BB2013D1380C0
:10FC6000032D00F2CC80DFE805F0A6A39CA90933A0
:10FC7000A3423FF64FAE02A8FFF7C8FD00287FF46D
:10FC80004AAE2B880822CA542B8801339BB21B2210
:10FC90002B80CA542888013080B22880062208446C
:10FCA0000DF1090101F02AF92B889DF8082006338F
:10FCB0009BB22B8002B10122F2542B8801339BB2FC
:10FCC0002B80BDE60433A3423FF624AE02A8FFF723
:10FCD000A1FD00287FF41FAE2B88BDF8082003216A
:10FCE000F1542B8801339BB219212B80F1542B88BE
:10FCF00001339BB2F1182B80F254120A4A702B8800
:10FD000002339BB22B809FE6D7F82880B8F1000F12
:10FD100075D0B8F804200232FE2A3FF6FBAD2B88DE
:10FD20004FF000094FF0160A08E0BA6A02EB8808A3
:10FD3000B8F804200232FE2A3FF6ECAD0132F2544C
:10FD40002B8801339BB22B8006F803A02B8801334C
:10FD50009BB22B80B8F80020F2543344120A5A7038
:10FD60002B8802339BB22B80B8F80410F0180A4697
:10FD700061B1D8F808301946002B40D001F0BEF828
:10FD8000B8F804202B8813449BB22B8009F1010999
:10FD900097F82C205FFA89F94A4509EB4908C4D83D
:10FDA00011E70225CD54138801339BB213803FE63F
:10FDB0000125CD54F7E70025CD54F4E70325CD54B4
:10FDC000F1E77B789A42BFF429AF26E707F10808EC
:10FDD000022201940095404611463346FFF720FD6C
:10FDE00000287FF498AD01940095404633461022D8
:10FDF0000621FFF715FD00283FF459AE8BE50720DB
:10FE000089E507F110080194009540463346022227
:10FE10000321FFF705FD00287FF47DAD01940095D7
:10FE20004046334610220721FFF7FAFC00283FF432
:10FE300042AE70E507F1180801940095404633463C
:10FE400002221421FFF7ECFC00287FF464AD01943A
:10FE500000954046334610221521FFF7E1FC0028AB
:10FE60003FF42DAE57E5BDF808309A42FFF4D5AE09
:10FE70000921D4E630B593B01F230D46ADF8043008
:10FE8000ADF80630044610B3C3785B0702D40720F0
:10FE900013B030BD02A901AAFFF732FD0028F7D147
:10FEA00002ACBDB1EB78002BF1D128460AA90DF1C7
:10FEB0000602FFF725FD0028EAD19DF806300AAAC0
:10FEC00020469DF80410FFF7A3FC13B030BDADF839
:10FED0000400E6E72B46ADF806502A46F0E700BFDF
:10FEE00073DF704774DF704730B59B4C9B4887B019
:10FEF00007220021FCF72CFB236823F07F4323F02B
:10FF0000FF03002B41D0964D2B78012B05D0A27812
:10FF1000002A00F00281022B0ED1924A1268002AB8
:10FF200000F00D81904B01210820197090472B782B
:10FF3000012B33D0022B4ED0227B0AB9032B6AD07F
:10FF4000227E12B9042B00F0FD80864A126812B19D
:10FF5000033B012B69D9854B00221A70182200211E
:10FF60006846FCF7F5FA297800234A1E8DF8003020
:10FF700001938DF808300393032A00F28480DFE8B0
:10FF800012F0C200A70085006100A378744D002B19
:10FF9000CDD02B78022BC0D0012BCDD16378C3B14B
:10FFA0006E4B5A78002A40F0D2809A78002A40F0AE
:10FFB000CE80DA78002A40F0CA801A79002A40F010
:10FFC000C6805A79002A40F0C2809B79002B40F00D
:10FFD000BE8002232B70A378C3B1604B5A78002AED
:10FFE00040F0B7809A78002A40F0B380DA78002A8F
:10FFF00040F0AF801A79002A40F0AB805A79002A8D
:020000022000DC
:1000000040F0A7809B79002B40F0A380227B032344
:100010002B70002A99D1237E04222A70002B00F035
:100020009180504B1A68002A95D02378002B92D0EB
:100030004F4B1B78002B8ED14C4B012107201970A0
:1000400090478BE74B4BE0691A79216AADF81000B5
:10005000ADF81210002A6BD02278002A6BD0444AE7
:100060001178002967D1444A0393042402231046DF
:10007000D4708DF80830FFF7FDFE002841D13F4BCA
:10008000297806221A70002934D02FE0394B606994
:100090001A792169ADF81200ADF81010002A40D08D
:1000A0002278002A40D0324A117800293CD1324AC5
:1000B0000393042402231046D4708DF80830FFF710
:1000C000D9FEF0B92D4B297805221A7091B10DE0B7
:1000D00022492A48A2686368019102240121047020
:1000E0008DF80010ADF81220ADF810306846FFF71B
:1000F000F7FE30B91B4B1B6813B1204A10789847A4
:10010000002007B030BD154B1C490193002201238C
:100110000B708DF800300492E8E7022B7FF40CAFEF
:1001200074E71A7B002ABBD1144B03221A70DDE757
:100130001A7B002A90D1114B04221A70D6E70A4983
:100140000A70F5E60D4A002313702B7003E70123B4
:10015000FBE60223F9E600BFFC2D0020942E0020D0
:10016000F92D0020602E0020902E0020E02E00208F
:10017000E12E0020D02E0020202E0020F82D00207F
:100180002DE9F047DDF820C0002800F09B80002A10
:1001900000F098801746054698460E460FCFDFF8C8
:1001A00058E1DFF858A1DFF85891AEE80F000FCF03
:1001B000AEE80F0000243A68444BCEF800202146F8
:1001C00007224348434FC3F800C08AF80040C9F8EB
:1001D0000080FCF7BDF9404B404ADFF828E11A6087
:1001E000214638223846C3F808E0FCF7B1F905F19A
:1001F000100393E80300AA78EB7895F800E0BA7052
:10020000FB7007F1100395F801C087F800E083E860
:10021000030005F1080393E8030007F1080E05F158
:1002200018038EE8030093E803006A6A87F801C0A8
:1002300007F1180383E80300B2B1294B7B62686AB7
:10024000284A9A60B0F804E001881980A3F804E015
:10025000BEF1000F08D0013A23468168C95C02F85C
:10026000011F01337345F8D1AB6AB3B11E4BBB62BA
:10027000A86A1E4A9A6084889C800188198044B1CB
:10028000013A00238168C95C02F8011F0133A342CF
:10029000F8D195F82C3087F82C302B6A33B1144BF9
:1002A0003B622A6A5188598012881A806B681BB198
:1002B000104B7B606B687B6031460648BDE8F047B9
:1002C000FFF7D8BD0E20BDE8F08700BF5C2E0020F0
:1002D000942E0020202E0020D02E0020E42E00207E
:1002E000842E0020642E00209C2E0020A82E0020AA
:1002F000C82E0020CC2E0020FC2D0020F92D00203F
:10030000602E0020042F002010B582B002AC002324
:1003100044F8043D0C4B18702046FEF7F3F808280B
:100320000CD028B9019B1BB9FFF7DEFD02B010BD50
:10033000064B012200201A7002B010BD2046FCF7C7
:1003400013FF0028EED0EFE7F92D0020582E0020F3
:1003500030B50388112B83B018D01B2B0AD0102B7B
:1003600001D003B030BD837D012BFAD12F4B8288A1
:100370001A80F6E7037A002BF3D12D4A1378013B5C
:10038000032BEED8DFE803F0332D3924274B818887
:100390001A882848002391420370E2D102AC244A13
:1003A00044F8043D012320461370FEF7ABF80828FB
:1003B00031D0002835D1019B002B32D1FFF794FDBD
:1003C0000028CED01C4B1B68002BCAD09847C8E72A
:1003D0001A4B1B4A1B6800201070002BC1D0984795
:1003E000BFE702AC002344F8043D0323DBE702AC83
:1003F000002344F8043D0223D5E702AC002344F86F
:10040000043D0F490423204603250D701370FEF7A9
:1004100079F80828CDD12046FCF7A6FE0028CAD0DE
:10042000CCE7084B01221A709BE700BFEA200020AE
:10043000F92D0020E12E00205C2E0020602E0020EF
:10044000F82D0020582E002030B51D4B1B7883B0AE
:100450003BB31C4B1A7822BB1B4A12781AB1FFF728
:1004600041FD0446F0B9194A012406251046002131
:100470001C70D570FFF7FEFC044698B902AD45F834
:10048000040D2846FEF73EF8082812D068B9019BF3
:100490005BB9FFF729FD20B10D4B1B680BB19847E5
:1004A00000E00024204603B030BD0A4B01221A7040
:1004B000F8E72846FCF758FE0028E8D0E9E700BF37
:1004C000FC2D0020E12E0020F92D0020202E002000
:1004D0005C2E0020582E002075DF704776DF7047B5
:1004E0007ADF70477BDF7047184B18884FF6FF7331
:1004F00098422AD010B5164A164C1378217B013346
:10050000DBB2994282B013700CD2237C00211170AF
:100510008BB9636923B102A8002200F8042D984723
:1005200002B010BD0C49FFF7D7FF0028F8D0A3692F
:10053000002BF4D1F4E73B21FFF7D0FF0028E8D0EF
:10054000A369002BE5D09847E3E77047262F0020EA
:10055000742F0020282F00206C2F002070B51E4B18
:100560001E4A5B881188994282B00FD852889A42FD
:100570000CD31B4B5B6923B102A8012200F8042DA8
:100580009847184C0023237002B070BD154C227898
:1005900062B1134B5B69002BF4D002A8002200F873
:1005A000042D98470023237002B070BD0C4D0E48F7
:1005B00069680678AB680D48002E18BF1946FCF72D
:1005C00017FD0028DED0AB69002BDBD09847002355
:1005D000237002B070BD00BF642F00206C2F00207C
:1005E000282F0020242F0020742F0020442F0020CB
:1005F000F8B505460FCD144C144F0FC4064695E8C8
:100600000700002384E807003B70B6B13068104B48
:10061000716803C3A3F10800FFF762FF90B90D4DA5
:100620000D4C0E4A0E4800234FF6FF762E802370A5
:100630001946BDE8F840FCF7C9BC0548FFF752FF72
:100640000028ECD0F8BD00BF282F0020242F002068
:100650006C2F0020262F0020742F0020E9040200B8
:100660005820020070B50388112B27D012D9122B05
:1006700007D0502B45D1234CC288E3899A4230D011
:1006800070BD083003C8204B83E80300BDE870400C
:10069000FFF764BF102B33D11C491A4C1A4B1C4D69
:1006A000E48900F118028088088092E803000022A3
:1006B00083E803002A70002CE8D070BD1349144B66
:1006C00014484FF6FF7400220C801A70FCF7FAFCF5
:1006D0000028D5D00B4B9B69002BD1D0BDE87040D2
:1006E0001847038A022BCBD1837CDB07CED4094881
:1006F000FCF7E8FC0028C3D0A369002BEED1BFE7CC
:1007000070BD70BD282F0020642F0020262F0020F0
:10071000742F0020442F0020A0DF7047A2DF704715
:1007200063DF704738B131B10B88112B14D0502BD7
:1007300002D0102B0DD07047CB88028A9A420FD07E
:1007400082889A42F7D18369002BF4D00A8A123149
:1007500018478B88838270474FF6FF7383827047F8
:100760000A8A022AECD18B7C13F0010318BF012303
:10077000837570472DE9F047794B06460D460FCB40
:1007800094B004AC84E80F00002E00F0E480002D4B
:1007900000F0E1804FF6FF73B3822B68B361002352
:1007A0002046B3753146FFF7BBFF0446002840F0F2
:1007B000D380324614A9012512F8023B21F8485D86
:1007C00028468DF80A30FFF7A7FF0446002840F0BE
:1007D000C380214603226846FBF7BAFE9DF80070ED
:1007E0009DF801309DF802E065F3030765F303030C
:1007F00065F3071365F3420E214665F307171C22C4
:100800000DA88DF800708DF801308DF802E0B0462B
:10081000FBF79EFE9DF8343018F80CEB0E944FF069
:10082000030A43F010032146524601A81094119484
:1008300013948DF834308DF80EE0CDF848D0ADF833
:100840000CA0FBF785FE9DF806209DF804E09DF8BE
:10085000053065F3420264F3C30264F30412D2B2BA
:1008600042EA050165F3030E65F3030365F3071E12
:1008700065F3071314228DF8061008A821468DF899
:1008800004E08DF805304FF01409FBF761FE01AF6D
:10089000ADF82A40434603AC08AA0DA97088089415
:1008A0000997ADF82850ADF82C90FFF737FF0446B4
:1008B000002851D10146B0461C220DA8FBF748FE86
:1008C0009DF8343018F8040B8DF80E0043F00C033B
:1008D00021465246022701A80E94109411941294B6
:1008E00013948DF83430ADF80C70FBF731FE9DF8A1
:1008F00006209DF804009DF8057065F3420264F33C
:10090000C30264F3041265F30300D2B265F3071067
:1009100065F3030742EA050321464A468DF80400C1
:1009200065F3071708A88DF806308DF80570FBF7FA
:100930000FFE7088ADF82A4003AE0896434608AA19
:100940000DA901AE0996ADF82850ADF82C90FFF72F
:10095000E5FE044600E00E24204614B0BDE8F08712
:100960005C200200F0B4984B1B78062B1BD0974AF2
:10097000D2F8883043F47003C2F88830BFF34F8F49
:10098000BFF36F8F4FF01023D3F80022002AC0F27C
:10099000E980D3F80432002BC0F2E4808C4B8D4AFE
:1009A0001A60F0BC70478C4B1B681D07DFD18B4B66
:1009B0001B6803F0F003302B02D1894B894A1A607F
:1009C000864B1B6803F0F002302A00F0BA8003F077
:1009D000E003402B00F0B580804B1B6803F0F00370
:1009E000302B00F09E807D4B1B6803F0F002302A14
:1009F00000F0838003F0E003402B7ED0774B1B6830
:100A000003F0F003302B6AD0744B1B6803F0F00343
:100A1000302B4DD0714B1B6803F0F003502BA6D147
:100A20004FF08052704BD2F80414C3F82015D2F85E
:100A30000814C3F82415D2F80C14C3F82815D2F8FA
:100A40001014C3F82C15D2F81414C3F83015D2F8CA
:100A50001814C3F83415D2F81C14C3F84015D2F892
:100A60002014C3F84415D2F82414C3F84815D2F85A
:100A70002814C3F84C15D2F82C14C3F85015D2F82A
:100A80003014C3F85415D2F83414C3F86015D2F8F2
:100A90003814C3F86415D2F83C14C3F86815D2F8BA
:100AA0004014C3F86C15D2F84424C3F870255EE7EF
:100AB000454B4E491B784E4D4E484F4A05270F6017
:100AC000012600243F21062B2E60046011607FF474
:100AD0004EAF414B1B681B077FF449AF9AE73A4B77
:100AE000464A1B780321062B11607FF440AF3A4B36
:100AF0001B681A077FF43BAF86E7334B1B784FF038
:100B000080420021062BC2F80C11C2F81011C2F865
:100B100038157FF42CAF304B1B6819077FF427AFD3
:100B20006CE7374A2849D368097823F0807306298F
:100B3000D3607FF41CAF284B1B6818077FF417AFF6
:100B400051E7304A204B12681B782F49C2F34232DA
:100B5000062B0A607FF40BAF1F4B1B681C077FF44A
:100B600006AF39E7294B0122C3F80425D3F8002446
:100B7000002AFBD04FF0102315222449C3F800228D
:100B8000D1F80034002BFBD04FF0102215211F4B61
:100B9000C2F80412D3F80024002AFBD000221B491B
:100BA000C3F80425D1F80034002BFBD0BFF34F8FDE
:100BB0000649174BCA6802F4E0621343CB60BFF3E7
:100BC0004F8F00BFFDE700BFE00F00F000ED00E039
:100BD000EC2000200090D003E40F00F0E80F00F0BC
:100BE00074C007400DF0ADBA00C000401056004080
:100BF000885600401856004014560040A00500409A
:100C0000F0ED00E0440200103C05004000E001402F
:100C10000400FA0552DF704710DF704760DF70474D
:100C200061DF704708B5FBF7D9FD08BD2DE9F04F2E
:100C3000DFF8B8902C4FD9F800303D6883B0002B16
:100C40004DD1002D3CD0012401AEDFF8A4A0DFF887
:100C5000A480DFF8A4B0D8F80030BAF80020ADF8CE
:100C6000042018463146FFF7DBFF0528054624D04F
:100C70005A46B221D0B1FBF779FD2846FBF766FD55
:100C8000CCB90025DFF870803046FFF7C3FF052898
:100C900004461FD042469321A8B1FBF767FD2046CA
:100CA000FBF754FD002DEFD12C46CEE718463B68EC
:100CB0009847002CE5D00124CDE70125002CE1D098
:100CC00003B0BDE8F08FD9F8003001989847002DA7
:100CD000EAD0D9E7002DF3D101252C46B5E7B5FAC6
:100CE00085F56D0901AECDE7782F0020842F002017
:100CF000762F0020882F00206C200200F8B50C46CB
:100D0000074616461D46FCF739FA0CB1A30701D079
:100D10000720F8BD1248134A134B0460134916808C
:100D200038461D60FFF778FF00B1F8BD104B114A3F
:100D30000121197092F81633C3F341138B4206D97F
:100D40000D4B996831B94FF480031360F8BD42F23E
:100D50000200EAE71A6842F480021A60F8BD00BF98
:100D6000882F0020762F00207C2F0020250C0200E9
:100D7000802F002000E100E010300020034618B171
:100D8000024A0020136070470E207047782F002021
:100D90000B4B1B6873B110B59847044600B910BDE2
:100DA000084A4FF4B371FBF7E1FC2046BDE8104060
:100DB000FBF7CCBC044B1B7803B97047FFF736BF79
:100DC0007C2F00206C200200802F002070B514467C
:100DD00005460E46104600211422FBF7B9FB227B84
:100DE0002672002363F300020121657222732361DE
:100DF000218005B1A172002070BD00BF30B583B065
:100E00000D4B0193019B834212D04FF08052044658
:100E1000D2F80C510949019A03460020FCF7D6F993
:100E2000C4EB852202F1005205490020FCF7CEF9FF
:100E3000002003B030BD00BF80200020F42002005D
:100E40002821020030B583B0184B019302AC019AFF
:100E500044F8082D164905460020FCF7B7F921464D
:100E60002846FFF7DBFE009A019B9A42044603D115
:100E7000B0B9204603B030BD4FF080530D49D3F8D0
:100E80000C510020FCF7A2F9009B0B49C3EB852312
:100E900003F100520020FCF799F9204603B030BD61
:100EA000024606490020FCF791F9FEE78020002069
:100EB0005021020074210200B0210200D82102005A
:100EC0000649074A074B9B1A03DD043BC858D0501C
:100ED000FBDCFFF747FDFBF7C9FA00009422020094
:100EE00080200020FC200020FEE7FEE7FEE7FEE772
:100EF000FEE7FEE7FEE7FEE7FEE7FEE710B5431E6E
:100F00000A44914200D110BD11F8014B03F8014F82
:100F1000F7E700000FB40A4B13B51C6824B1A369AE
:100F200013B9204600F05EF805AB049AA16801935E
:100F3000204600F069F902B0BDE8104004B07047E7
:100F400080200020034611F8012B03F8012B002A12
:100F5000F9D17047034613F8012B002AFBD1181A68
:100F600001387047014900F0A9B800BFB91A020062
:100F7000002310B5044603604360836081814366AB
:100F8000C281036143618361194608225C30FBF72B
:100F9000DFFA054B6362054BA362054BE362054B29
:100FA0002462236310BD00BF81170200A317020053
:100FB000DB170200FF17020070B54A1E6825554373
:100FC0000E4605F1740100F097F8044640B1002187
:100FD00080E842000C30A06005F16802FBF7B8FA27
:100FE000204670BD836910B5044633BB8364C36477
:100FF0000365124B124A1B688262984204BF0123A8
:10100000836100F01FF86060204600F01BF8A060CC
:10101000204600F017F80022E06004216068FFF726
:10102000A7FF01220921A068FFF7A2FF02221221D7
:10103000E068FFF79DFF0123A36110BD2C1E020095
:10104000650F0200F8B51C4B1E68B369074613B95B
:101050003046FFF7C7FF4836B4687368013B03D5D5
:10106000336833B13668F7E7B4F90C506DB16834C2
:10107000F4E704213846FFF79FFF30600028F1D1E4
:101080000C233B6004462046F8BD4FF6FF73E38116
:101090000123A38165662560A560656025616561A2
:1010A000A5610822294604F15C00FBF751FA65634B
:1010B000A563A564E564E6E72C1E02002DE9F8436C
:1010C0008046894600F14804002614B93046BDE840
:1010D000F883A5686768013F01D52468F5E7AB8907
:1010E000012B07D9B5F90E30013303D0294640460C
:1010F000C84706436835EEE770B5CD1C25F00305FB
:1011000008350C2D38BF0C25002D064601DBA94201
:1011100003D90C233360002070BD00F0C1FD234AC9
:101120001468214691B9224C23681BB9304600F05F
:1011300017FB20602946304600F012FB431C26D1E5
:101140000C233360304600F0ACFDE4E70B685B1B1A
:101150001AD40B2B0FD90B60CD50CC18304600F0B1
:10116000A0FD04F10B00231D20F00700C31A1BD0C3
:101170005A42E25070BD8C420DBF63684B68636099
:10118000136018BF0C46E9E70C464968CAE7C41C5F
:1011900024F00304A04205D0211A304600F0E0FA02
:1011A0000130CDD02560D9E770BD00BF8C2F002065
:1011B000902F00209368013B002B10B4936009DA54
:1011C0009469A34202DBCBB20A2B03D15DF8044B36
:1011D00000F01ABB1368581C10601970C8B25DF893
:1011E000044B7047F8B506460F461446D518AC4276
:1011F00001D1002007E03A4614F8011B3046FFF702
:10120000D9FF431CF3D1F8BD2DE9F04F9DB00C463A
:1012100017460393064618B183690BB9FFF7E2FE40
:101220007C4B9C4257D17468A38918075DD523690C
:10123000002B5AD00023099320238DF82930302326
:101240008DF82A304FF0010BB846454615F8013BA2
:10125000002B55D1B8EB070A0BD053463A4621462E
:101260003046FFF7BFFF013000F0C480099B5344B4
:10127000099398F80030002B00F0BC8000234FF059
:10128000FF3204930793059206938DF853301A9317
:1012900005222978604800F0B3FC05F10108049BA1
:1012A000002831D1D90644BF20228DF853201A07D7
:1012B00044BF2B228DF853202A782A2A2CD0079A53
:1012C00000210A20A846013598F80030303B092B50
:1012D0006DD971B326E0514B9C4201D1B468A3E7AC
:1012E0004F4B9C4208BFF4689EE72146304600F011
:1012F000DDFA00289ED04FF0FF301DB0BDE8F08F22
:10130000252BA7D0A846A0E7434A801A0BFA00F085
:10131000184304904546BBE7039A111D12680391D8
:10132000002A01DB079204E0524243F002030792D5
:10133000049398F800302E2B10D198F801302A2B06
:1013400008F1010137D1039B1A1D1B680392002B82
:10135000B8BF4FF0FF3308F102080593314D98F8FC
:1013600000100322284600F04BFC40B14023401BF4
:1013700003FA00F0049B0343049308F1010898F872
:10138000001029488DF82810062208F1010700F006
:1013900037FC002834D0254B03BB039B073323F0D5
:1013A000070308330393099B4B4409934CE700FB65
:1013B0000232012186E70023059318460A25884654
:1013C000013198F80020303A092A03D9002BC5D002
:1013D0000590C3E705FB00200123F0E703AB009372
:1013E0002246134B04A93046AFF30080B0F1FF3F13
:1013F0008146D8D1A3895B063FF57DAF09987CE78C
:1014000003AB009322460A4B04A9304600F088F84B
:10141000ECE700BF14220200542202003422020032
:10142000F42102005A2202005E22020000000000A5
:10143000E51102002DE9F04791461F468A680B69C5
:10144000DDF820809342B8BF1346C9F8003091F808
:10145000432006460C4612B10133C9F80030236818
:10146000990642BFD9F800300233C9F80030256828
:1014700015F0060507D104F1190AE368D9F8002030
:101480009B1A9D4229DB94F843302268003318BF31
:10149000012392062ED404F1430239463046C04758
:1014A000013021D02368E568D9F8002003F0060355
:1014B000042B08BFAD1AA36822690CBF25EAE575A5
:1014C00000259342C4BF9B1AED184FF000091A344F
:1014D0004D451BD10020BDE8F08701235246394617
:1014E0003046C047013003D14FF0FF30BDE8F087F0
:1014F0000135C2E7E1185A1C302081F8430022442C
:1015000094F8451082F843100233C4E701232246C1
:1015100039463046C0470130E6D009F10109D7E726
:101520002DE9F04317460A7E85B06E2A9846064696
:101530000C460C9B01F1430E00F0BC801AD8632AC4
:101540002ED00AD8002A00F0C880582A00F08A80DD
:1015500004F1420584F842202AE0642A01D0692A75
:10156000F6D121681A6811F0800F23D0111D19607F
:10157000136827E0732A00F0B48008D86F2A2AD0B5
:10158000702AE5D10A6842F020020A6003E0752A59
:1015900021D0782ADCD1782284F845206E4964E095
:1015A0001A6801F14205111D1960136884F8423070
:1015B0000123A3E011F0400F02F104011960D7D01C
:1015C000B2F90030002B03DA2D225B4284F843206D
:1015D00062490A2217E02068196810F0800F03D0D2
:1015E000081D18600B6806E010F0400F01F10400C0
:1015F0001860F7D00B8859496F2A14BF0A220822B5
:10160000002084F843006568A560002DC0F29C802E
:10161000206820F004002060002B3FD1002D40F016
:1016200095807546082A0BD12368DA0708D5236907
:1016300062689A42DEBF302305F8013C05F1FF35B0
:10164000AEEB05032361CDF800803B4603AA21469B
:101650003046FFF7EFFE013055D14FF0FF3005B0B7
:10166000BDE8F08381F845203C492268186812F0F3
:10167000800F00F104051D6001D0036802E05506EB
:10168000FBD50388D00744BF42F0200222601BB97B
:10169000226822F0200222601022B1E77546B3FBD7
:1016A000F2F002FB1033CB5C05F8013D0346002845
:1016B000F5D1B7E708681A68496910F0800F04D0BF
:1016C000101D18601368196007E010F0400F02F158
:1016D000040018601368F6D0198000232361754652
:1016E000B1E71A68111D1960156862680021284663
:1016F00000F086FA08B1401B606063682361002334
:1017000084F843309FE723692A4639463046C0476C
:101710000130A2D023689B0707D5002504F11909E1
:10172000E368039A9B1A9D4205DBE068039B98429D
:10173000B8BF184693E701234A4639463046C047AA
:1017400001308AD00135EBE7002BA7D10B7884F864
:10175000423004F1420565E776220200652202006C
:1017600038B5064C002305460846236000F044FBCC
:10177000431C02D1236803B12B6038BD1C3000200C
:1017800010B50C46B1F90E1000F0DAFA0028ABBF24
:10179000636DA3891B1823F48053ACBF6365A381D9
:1017A00010BD2DE9F0411F468B89DB0505460C462F
:1017B000164605D502230022B1F90E1000F0A6F955
:1017C000A389B4F90E1023F48053A38132463B461B
:1017D0002846BDE8F041FBF709BD10B50C46B1F94C
:1017E0000E1000F093F9431CA38915BF606523F424
:1017F000805343F48053A38118BFA38110BDB1F976
:101800000E1000F0C1B80000F8B50E4614460546AB
:1018100018B183690BB9FFF7E5FB214B9C422AD134
:101820006C68A369A360A3891A072ED5236963B3E3
:1018300023692068C01A6369F6B29842374604DB10
:101840002146284600F038F928BBA368013BA36075
:1018500023685A1C22601E7063690130984204D0CC
:10186000A389DB0719D50A2E17D12146284600F097
:1018700023F990B10FE00B4B9C4201D1AC68D0E74B
:10188000094B9C4208BFEC68CBE72146284600F094
:101890000DF80028CCD04FF0FF373846F8BD00BF18
:1018A0001422020034220200F4210200324B70B5EF
:1018B0001D6806460C4625B1AB6913B92846FFF7EB
:1018C00091FB2E4B9C420FD16C68B4F90C309AB24C
:1018D00015072CD4D00611D40922326043F04003FE
:1018E000A3814FF0FF3070BD254B9C4201D1AC6805
:1018F000EBE7244B9C4208BFEC68E6E7510712D5A2
:10190000616B41B104F14403994202D0304600F0CA
:10191000C9F900236363A38923F02403A38100236F
:10192000636023692360A38943F00803A3812369CB
:101930004BB9A38903F42073B3F5007F03D021468C
:10194000304600F019F9A28912F001030CD00023EF
:10195000A36063695B42A361236953B9B4F90C3096
:1019600013F08000BAD170BD920758BF6369A360BD
:10197000F2E70020F7E700BF8020002014220200D9
:1019800034220200F421020038B5064C002305463B
:101990000846236000F008FA431C02D1236803B113
:1019A0002B6038BD1C3000208A892DE9F0410546A6
:1019B00010070C465AD44B68002B05DC0B6C002B2F
:1019C00002DC0020BDE8F081E66A002EF9D0002399
:1019D00012F480522F682B6033D0606DA3895A07B0
:1019E00005D56368C01A636B0BB1236CC01A002362
:1019F0000246E66A216A2846B047431CA38906D1FD
:101A000029681D294BD82B4ACA40D60747D5002242
:101A10006260D9042269226004D5421C01D12B687E
:101A200003B96065616B2F600029CAD004F14403DB
:101A3000994202D0284600F035F900206063BDE8E5
:101A4000F081216A01232846B047411CC6D12B688A
:101A5000002BC3D01D2B01D0162B01D12F60B0E776
:101A6000A38943F04003A381BDE8F0810F69002FF3
:101A7000A7D093070E6808BF4B690F6018BF0023FB
:101A8000A6EB07088B60B8F1000F9ADD43463A4693
:101A9000216AA66A2846B047002807DCA38943F0DC
:101AA0004003A3814FF0FF30BDE8F0810744A8EB6D
:101AB0000008E8E70100402038B50B6905460C46F0
:101AC000DBB118B183690BB9FFF78CFA0C4B9C4260
:101AD00009D16C68B4F90C307BB121462846BDE8C9
:101AE0003840FFF761BF074B9C4201D1AC68F1E77A
:101AF000054B9C4208BFEC68ECE7002038BD00BFF6
:101B00001422020034220200F421020038B5074CEE
:101B1000054608461146002222601A4600F05CF98C
:101B2000431C02D1236803B12B6038BD1C30002058
:101B300070B50E46B1F90E10002990B014461D463E
:101B400007DA00232B60B3891A0610D44FF48063A0
:101B50000EE001AA00F006F90028F2DB029A02F476
:101B60007042A2F500535A425A412A60EEE74023E0
:101B70000020236010B070BD8B8973B59D070646A9
:101B80000C4607D504F147032360236101236361F9
:101B900002B070BD01AB6A46FFF7CAFF0099054667
:101BA0003046FFF7A9FA48B9B4F90C309A05EFD4DA
:101BB00023F0030343F00203A381E3E70D4BB36279
:101BC000A389206043F08003A381009B6361019B94
:101BD00020615BB1B4F90E10304600F0D5F828B1A1
:101BE000A38923F0030343F00103A381A3891D43C9
:101BF000A581CDE7650F0200000000000000000095
:101C000001F0FF01102A2BDB10F0070F08D010F8AD
:101C1000013B013A8B422DD010F0070F42B3F6D1B1
:101C2000F0B441EA012141EA014122F007047FF0CA
:101C300000070023F0E80256083C85EA010586EA21
:101C4000010685FA47F5A3FA87F586FA47F6A5FA5D
:101C500087F68EB9EED1F0BC01F0FF0102F0070269
:101C600032B110F8013B013A83EA010313B1F8D114
:101C70000020704701387047002D06BF35460338F5
:101C8000073815F0010F07D1013015F4807F02BF2E
:101C9000013015F4C03F0130F0BC0138704700BF7F
:101CA0007047704738B50546002945D051F8043CC7
:101CB0000C1F002BB8BFE418FFF7F2FF1F4A136890
:101CC000104633B9636014602846BDE83840FFF71A
:101CD000E8BFA3420CD921686218934204BF1A6876
:101CE0005B68636004BF521822600460ECE713462F
:101CF0005A680AB1A242FAD919685818A0420BD101
:101D000020680144581882421960DDD11068526879
:101D10005A6001441960D7E702D90C232B60D3E73E
:101D2000206821188A4204BF11685268626004BFAB
:101D3000091821605C60C7E738BD00BF8C2F002008
:101D400038B5074C054608461146002222601A465F
:101D500000F04AF8431C02D1236803B12B6038BD60
:101D60001C30002038B5074C0023054608461146B4
:101D7000236000F021F8431C02D1236803B12B60DB
:101D800038BD00BF1C30002038B5064C0023054686
:101D90000846236000F018F8431C02D1236803B101
:101DA0002B6038BD1C300020024B58221A604FF0C7
